{
  "contractName": "Bidder",
  "abi": [
    {
      "constant": true,
      "inputs": [
        {
          "internalType": "uint256",
          "name": "",
          "type": "uint256"
        }
      ],
      "name": "bids",
      "outputs": [
        {
          "internalType": "uint256",
          "name": "",
          "type": "uint256"
        }
      ],
      "payable": false,
      "stateMutability": "view",
      "type": "function"
    },
    {
      "constant": true,
      "inputs": [
        {
          "internalType": "uint256",
          "name": "",
          "type": "uint256"
        }
      ],
      "name": "options",
      "outputs": [
        {
          "internalType": "string",
          "name": "",
          "type": "string"
        }
      ],
      "payable": false,
      "stateMutability": "view",
      "type": "function"
    },
    {
      "constant": false,
      "inputs": [
        {
          "internalType": "string",
          "name": "option",
          "type": "string"
        }
      ],
      "name": "addOption",
      "outputs": [],
      "payable": false,
      "stateMutability": "nonpayable",
      "type": "function"
    },
    {
      "constant": false,
      "inputs": [],
      "name": "startBidding",
      "outputs": [],
      "payable": false,
      "stateMutability": "nonpayable",
      "type": "function"
    },
    {
      "constant": false,
      "inputs": [
        {
          "internalType": "uint256",
          "name": "option",
          "type": "uint256"
        }
      ],
      "name": "bid",
      "outputs": [],
      "payable": false,
      "stateMutability": "nonpayable",
      "type": "function"
    },
    {
      "constant": false,
      "inputs": [
        {
          "internalType": "string",
          "name": "option",
          "type": "string"
        }
      ],
      "name": "bid",
      "outputs": [],
      "payable": false,
      "stateMutability": "nonpayable",
      "type": "function"
    },
    {
      "constant": true,
      "inputs": [],
      "name": "getBids",
      "outputs": [
        {
          "internalType": "uint256[]",
          "name": "",
          "type": "uint256[]"
        }
      ],
      "payable": false,
      "stateMutability": "view",
      "type": "function"
    }
  ],
  "bytecode": "0x608060405234801561001057600080fd5b50610c88806100206000396000f3fe608060405234801561001057600080fd5b506004361061007d5760003560e01c80637aef951c1161005b5780637aef951c146101995780637d7b39e414610254578063b81c78ec1461025e578063edc550dc146102bd5761007d565b8063409e2205146100825780634423c5f114610129578063454a2ab31461016b575b600080fd5b6100ae6004803603602081101561009857600080fd5b8101908080359060200190929190505050610378565b6040518080602001828103825283818151815260200191508051906020019080838360005b838110156100ee5780820151818401526020810190506100d3565b50505050905090810190601f16801561011b5780820380516001836020036101000a031916815260200191505b509250505060405180910390f35b6101556004803603602081101561013f57600080fd5b8101908080359060200190929190505050610431565b6040518082815260200191505060405180910390f35b6101976004803603602081101561018157600080fd5b8101908080359060200190929190505050610452565b005b610252600480360360208110156101af57600080fd5b81019080803590602001906401000000008111156101cc57600080fd5b8201836020820111156101de57600080fd5b8035906020019184600183028401116401000000008311171561020057600080fd5b91908080601f016020809104026020016040519081016040528093929190818152602001838380828437600081840152601f19601f820116905080830192505050505050509192919290505050610629565b005b61025c61089c565b005b610266610a49565b6040518080602001828103825283818151815260200191508051906020019060200280838360005b838110156102a957808201518184015260208101905061028e565b505050509050019250505060405180910390f35b610376600480360360208110156102d357600080fd5b81019080803590602001906401000000008111156102f057600080fd5b82018360208201111561030257600080fd5b8035906020019184600183028401116401000000008311171561032457600080fd5b91908080601f016020809104026020016040519081016040528093929190818152602001838380828437600081840152601f19601f820116905080830192505050505050509192919290505050610aa1565b005b6003818154811061038557fe5b906000526020600020016000915090508054600181600116156101000203166002900480601f0160208091040260200160405190810160405280929190818152602001828054600181600116156101000203166002900480156104295780601f106103fe57610100808354040283529160200191610429565b820191906000526020600020905b81548152906001019060200180831161040c57829003601f168201915b505050505081565b6000818154811061043e57fe5b906000526020600020016000915090505481565b80600011158015610467575060038054905081105b6104d9576040517f08c379a000000000000000000000000000000000000000000000000000000000815260040180806020018281038252600e8152602001807f496e76616c6964206f7074696f6e00000000000000000000000000000000000081525060200191505060405180910390fd5b600160003373ffffffffffffffffffffffffffffffffffffffff1673ffffffffffffffffffffffffffffffffffffffff16815260200190815260200160002060009054906101000a900460ff1615610599576040517f08c379a00000000000000000000000000000000000000000000000000000000081526004018080602001828103825260208152602001807f4163636f756e742068617320616c726561647920646f6e652062696464696e6781525060200191505060405180910390fd5b60018060003373ffffffffffffffffffffffffffffffffffffffff1673ffffffffffffffffffffffffffffffffffffffff16815260200190815260200160002060006101000a81548160ff0219169083151502179055506001600082815481106105ff57fe5b9060005260206000200154016000828154811061061857fe5b906000526020600020018190555050565b600160003373ffffffffffffffffffffffffffffffffffffffff1673ffffffffffffffffffffffffffffffffffffffff16815260200190815260200160002060009054906101000a900460ff16156106e9576040517f08c379a000000000000000000000000000000000000000000000000000000000815260040180806020018281038252601f8152602001807f4163636f756e742068617320616c726561647920646f6e6520626964696e670081525060200191505060405180910390fd5b6106f1610b66565b6002826040518082805190602001908083835b602083106107275780518252602082019150602081019050602083039250610704565b6001836020036101000a0380198251168184511680821785525050505050509050019150509081526020016040518091039020604051806040016040529081600082015481526020016001820160009054906101000a900460ff16151515158152505090508060200151610803576040517f08c379a00000000000000000000000000000000000000000000000000000000081526004018080602001828103825260158152602001807f4f7074696f6e20646f6573206e6f74206578697374000000000000000000000081525060200191505060405180910390fd5b60018060003373ffffffffffffffffffffffffffffffffffffffff1673ffffffffffffffffffffffffffffffffffffffff16815260200190815260200160002060006101000a81548160ff0219169083151502179055506001600082600001518154811061086d57fe5b906000526020600020015401600082600001518154811061088a57fe5b90600052602060002001819055505050565b600460009054906101000a900460ff161561091f576040517f08c379a000000000000000000000000000000000000000000000000000000000815260040180806020018281038252601b8152602001807f42696464696e672068617320616c72656164792073746172746564000000000081525060200191505060405180910390fd5b6003805490506000816109329190610b82565b5060008090505b600380549050811015610a2b5761094e610b66565b60405180604001604052808381526020016001151581525090508060026003848154811061097857fe5b9060005260206000200160405180828054600181600116156101000203166002900480156109dd5780601f106109bb5761010080835404028352918201916109dd565b820191906000526020600020905b8154815290600101906020018083116109c9575b505091505090815260200160405180910390206000820151816000015560208201518160010160006101000a81548160ff021916908315150217905550905050508080600101915050610939565b506001600460006101000a81548160ff021916908315150217905550565b60606000805480602002602001604051908101604052809291908181526020018280548015610a9757602002820191906000526020600020905b815481526020019060010190808311610a83575b5050505050905090565b600460009054906101000a900460ff1615610b24576040517f08c379a000000000000000000000000000000000000000000000000000000000815260040180806020018281038252601b8152602001807f42696464696e672068617320616c72656164792073746172746564000000000081525060200191505060405180910390fd5b6003819080600181540180825580915050906001820390600052602060002001600090919290919091509080519060200190610b61929190610bae565b505050565b6040518060400160405280600081526020016000151581525090565b815481835581811115610ba957818360005260206000209182019101610ba89190610c2e565b5b505050565b828054600181600116156101000203166002900490600052602060002090601f016020900481019282601f10610bef57805160ff1916838001178555610c1d565b82800160010185558215610c1d579182015b82811115610c1c578251825591602001919060010190610c01565b5b509050610c2a9190610c2e565b5090565b610c5091905b80821115610c4c576000816000905550600101610c34565b5090565b9056fea265627a7a7231582063342ac924516d997cf93b27a4b654fbf8ae993e4a01ed1fcf9ceda849d52bdb64736f6c63430005100032",
  "source": "// SPDX-License-Identifier: MIT\npragma solidity >=0.4.21 <0.7.0;\n\ncontract Bidder {\n\n    struct OptionPos {\n        uint pos;\n        bool exists;\n    }\n\n    uint[] public bids;\n    mapping (address => bool) hasDoneBiding;\n    mapping (string => OptionPos) posOfOption;\n    string[] public options;\n    bool biddingStarted;\n\n    function addOption(string memory option) public {\n        require(!biddingStarted, \"Bidding has already started\");\n        options.push(option);\n    }\n\n    function startBidding() public {\n        require(!biddingStarted, \"Bidding has already started\");\n        bids.length = options.length;\n\n        for(uint i = 0; i < options.length; i++) {\n            OptionPos memory option = OptionPos(i, true);\n            posOfOption[options[i]] = option;\n        }\n        biddingStarted = true;\n    }\n\n    function bid(uint option) public {\n        require(0 <= option && option < options.length, \"Invalid option\");\n        require(!hasDoneBiding[msg.sender], \"Account has already done bidding\");\n\n        hasDoneBiding[msg.sender] = true;\n        bids[option] = bids[option] + 1;\n    }\n\n    function bid(string memory option) public {\n        require(!hasDoneBiding[msg.sender], \"Account has already done biding\");\n        OptionPos memory optionPos = posOfOption[option];\n        require(optionPos.exists, \"Option does not exist\");\n\n        hasDoneBiding[msg.sender] = true;\n        bids[optionPos.pos] = bids[optionPos.pos] + 1;\n    }\n\n    function getBids() public view returns (uint[] memory) {\n        return bids;\n    }\n}",
  "sourcePath": "/Users/zeeshanlatifjan/Work/bid-for-me/contracts/Bidder.sol",
  "compiler": {
    "name": "solc",
    "version": "0.5.16+commit.9c3226ce.Emscripten.clang"
  },
  "schemaVersion": "3.4.7",
  "updatedAt": "2022-05-09T02:18:44.534Z",
  "networkType": "ethereum",
  "devdoc": {
    "methods": {}
  },
  "userdoc": {
    "methods": {}
  }
}