{
  "contractName": "Bidder",
  "abi": [
    {
      "constant": true,
      "inputs": [
        {
          "internalType": "uint256",
          "name": "",
          "type": "uint256"
        }
      ],
      "name": "bids",
      "outputs": [
        {
          "internalType": "uint256",
          "name": "",
          "type": "uint256"
        }
      ],
      "payable": false,
      "stateMutability": "view",
      "type": "function"
    },
    {
      "constant": true,
      "inputs": [
        {
          "internalType": "uint256",
          "name": "",
          "type": "uint256"
        }
      ],
      "name": "options",
      "outputs": [
        {
          "internalType": "string",
          "name": "",
          "type": "string"
        }
      ],
      "payable": false,
      "stateMutability": "view",
      "type": "function"
    },
    {
      "constant": false,
      "inputs": [
        {
          "internalType": "string",
          "name": "option",
          "type": "string"
        }
      ],
      "name": "addOption",
      "outputs": [],
      "payable": false,
      "stateMutability": "nonpayable",
      "type": "function"
    },
    {
      "constant": true,
      "inputs": [
        {
          "internalType": "string",
          "name": "option",
          "type": "string"
        }
      ],
      "name": "getOption",
      "outputs": [
        {
          "internalType": "bool",
          "name": "",
          "type": "bool"
        }
      ],
      "payable": false,
      "stateMutability": "view",
      "type": "function"
    },
    {
      "constant": true,
      "inputs": [],
      "name": "getOptionsCount",
      "outputs": [
        {
          "internalType": "uint256",
          "name": "",
          "type": "uint256"
        }
      ],
      "payable": false,
      "stateMutability": "view",
      "type": "function"
    },
    {
      "constant": false,
      "inputs": [],
      "name": "startBidding",
      "outputs": [],
      "payable": false,
      "stateMutability": "nonpayable",
      "type": "function"
    },
    {
      "constant": false,
      "inputs": [
        {
          "internalType": "uint256",
          "name": "option",
          "type": "uint256"
        }
      ],
      "name": "bid",
      "outputs": [],
      "payable": false,
      "stateMutability": "nonpayable",
      "type": "function"
    },
    {
      "constant": false,
      "inputs": [
        {
          "internalType": "string",
          "name": "option",
          "type": "string"
        }
      ],
      "name": "bid",
      "outputs": [],
      "payable": false,
      "stateMutability": "nonpayable",
      "type": "function"
    },
    {
      "constant": true,
      "inputs": [],
      "name": "getBids",
      "outputs": [
        {
          "internalType": "uint256[]",
          "name": "",
          "type": "uint256[]"
        }
      ],
      "payable": false,
      "stateMutability": "view",
      "type": "function"
    }
  ],
  "bytecode": "0x608060405234801561001057600080fd5b50610ed7806100206000396000f3fe608060405234801561001057600080fd5b50600436106100935760003560e01c80637aef951c116100665780637aef951c146102825780637d7b39e41461033d578063a4d4334a14610347578063b81c78ec14610365578063edc550dc146103c457610093565b80633acfd90914610098578063409e22051461016b5780634423c5f114610212578063454a2ab314610254575b600080fd5b610151600480360360208110156100ae57600080fd5b81019080803590602001906401000000008111156100cb57600080fd5b8201836020820111156100dd57600080fd5b803590602001918460018302840111640100000000831117156100ff57600080fd5b91908080601f016020809104026020016040519081016040528093929190818152602001838380828437600081840152601f19601f82011690508083019250505050505050919291929050505061047f565b604051808215151515815260200191505060405180910390f35b6101976004803603602081101561018157600080fd5b81019080803590602001909291905050506105ba565b6040518080602001828103825283818151815260200191508051906020019080838360005b838110156101d75780820151818401526020810190506101bc565b50505050905090810190601f1680156102045780820380516001836020036101000a031916815260200191505b509250505060405180910390f35b61023e6004803603602081101561022857600080fd5b8101908080359060200190929190505050610673565b6040518082815260200191505060405180910390f35b6102806004803603602081101561026a57600080fd5b8101908080359060200190929190505050610694565b005b61033b6004803603602081101561029857600080fd5b81019080803590602001906401000000008111156102b557600080fd5b8201836020820111156102c757600080fd5b803590602001918460018302840111640100000000831117156102e957600080fd5b91908080601f016020809104026020016040519081016040528093929190818152602001838380828437600081840152601f19601f82011690508083019250505050505050919291929050505061086b565b005b610345610ade565b005b61034f610c8b565b6040518082815260200191505060405180910390f35b61036d610c98565b6040518080602001828103825283818151815260200191508051906020019060200280838360005b838110156103b0578082015181840152602081019050610395565b505050509050019250505060405180910390f35b61047d600480360360208110156103da57600080fd5b81019080803590602001906401000000008111156103f757600080fd5b82018360208201111561040957600080fd5b8035906020019184600183028401116401000000008311171561042b57600080fd5b91908080601f016020809104026020016040519081016040528093929190818152602001838380828437600081840152601f19601f820116905080830192505050505050509192919290505050610cf0565b005b6000805b6003805490508110156105af57826040516020018082805190602001908083835b602083106104c757805182526020820191506020810190506020830392506104a4565b6001836020036101000a038019825116818451168082178552505050505050905001915050604051602081830303815290604052805190602001206003828154811061050f57fe5b9060005260206000200160405160200180828054600181600116156101000203166002900480156105775780601f10610555576101008083540402835291820191610577565b820191906000526020600020905b815481529060010190602001808311610563575b50509150506040516020818303038152906040528051906020012014156105a25760019150506105b5565b8080600101915050610483565b50600090505b919050565b600381815481106105c757fe5b906000526020600020016000915090508054600181600116156101000203166002900480601f01602080910402602001604051908101604052809291908181526020018280546001816001161561010002031660029004801561066b5780601f106106405761010080835404028352916020019161066b565b820191906000526020600020905b81548152906001019060200180831161064e57829003601f168201915b505050505081565b6000818154811061068057fe5b906000526020600020016000915090505481565b806000111580156106a9575060038054905081105b61071b576040517f08c379a000000000000000000000000000000000000000000000000000000000815260040180806020018281038252600e8152602001807f496e76616c6964206f7074696f6e00000000000000000000000000000000000081525060200191505060405180910390fd5b600160003373ffffffffffffffffffffffffffffffffffffffff1673ffffffffffffffffffffffffffffffffffffffff16815260200190815260200160002060009054906101000a900460ff16156107db576040517f08c379a00000000000000000000000000000000000000000000000000000000081526004018080602001828103825260208152602001807f4163636f756e742068617320616c726561647920646f6e652062696464696e6781525060200191505060405180910390fd5b60018060003373ffffffffffffffffffffffffffffffffffffffff1673ffffffffffffffffffffffffffffffffffffffff16815260200190815260200160002060006101000a81548160ff02191690831515021790555060016000828154811061084157fe5b9060005260206000200154016000828154811061085a57fe5b906000526020600020018190555050565b600160003373ffffffffffffffffffffffffffffffffffffffff1673ffffffffffffffffffffffffffffffffffffffff16815260200190815260200160002060009054906101000a900460ff161561092b576040517f08c379a000000000000000000000000000000000000000000000000000000000815260040180806020018281038252601f8152602001807f4163636f756e742068617320616c726561647920646f6e6520626964696e670081525060200191505060405180910390fd5b610933610db5565b6002826040518082805190602001908083835b602083106109695780518252602082019150602081019050602083039250610946565b6001836020036101000a0380198251168184511680821785525050505050509050019150509081526020016040518091039020604051806040016040529081600082015481526020016001820160009054906101000a900460ff16151515158152505090508060200151610a45576040517f08c379a00000000000000000000000000000000000000000000000000000000081526004018080602001828103825260158152602001807f4f7074696f6e20646f6573206e6f74206578697374000000000000000000000081525060200191505060405180910390fd5b60018060003373ffffffffffffffffffffffffffffffffffffffff1673ffffffffffffffffffffffffffffffffffffffff16815260200190815260200160002060006101000a81548160ff02191690831515021790555060016000826000015181548110610aaf57fe5b9060005260206000200154016000826000015181548110610acc57fe5b90600052602060002001819055505050565b600460009054906101000a900460ff1615610b61576040517f08c379a000000000000000000000000000000000000000000000000000000000815260040180806020018281038252601b8152602001807f42696464696e672068617320616c72656164792073746172746564000000000081525060200191505060405180910390fd5b600380549050600081610b749190610dd1565b5060008090505b600380549050811015610c6d57610b90610db5565b604051806040016040528083815260200160011515815250905080600260038481548110610bba57fe5b906000526020600020016040518082805460018160011615610100020316600290048015610c1f5780601f10610bfd576101008083540402835291820191610c1f565b820191906000526020600020905b815481529060010190602001808311610c0b575b505091505090815260200160405180910390206000820151816000015560208201518160010160006101000a81548160ff021916908315150217905550905050508080600101915050610b7b565b506001600460006101000a81548160ff021916908315150217905550565b6000600380549050905090565b60606000805480602002602001604051908101604052809291908181526020018280548015610ce657602002820191906000526020600020905b815481526020019060010190808311610cd2575b5050505050905090565b600460009054906101000a900460ff1615610d73576040517f08c379a000000000000000000000000000000000000000000000000000000000815260040180806020018281038252601b8152602001807f42696464696e672068617320616c72656164792073746172746564000000000081525060200191505060405180910390fd5b6003819080600181540180825580915050906001820390600052602060002001600090919290919091509080519060200190610db0929190610dfd565b505050565b6040518060400160405280600081526020016000151581525090565b815481835581811115610df857818360005260206000209182019101610df79190610e7d565b5b505050565b828054600181600116156101000203166002900490600052602060002090601f016020900481019282601f10610e3e57805160ff1916838001178555610e6c565b82800160010185558215610e6c579182015b82811115610e6b578251825591602001919060010190610e50565b5b509050610e799190610e7d565b5090565b610e9f91905b80821115610e9b576000816000905550600101610e83565b5090565b9056fea265627a7a723158204bc63c52db247727fad3a01de5db7c6a8b0b0c3976d70c18ba0bd4aa6ecdac9564736f6c63430005100032",
  "source": "// SPDX-License-Identifier: MIT\npragma solidity >=0.4.21 <0.7.0;\n\ncontract Bidder {\n\n    struct OptionPos {\n        uint pos;\n        bool exists;\n    }\n\n    uint[] public bids;\n    mapping (address => bool) hasDoneBiding;\n    mapping (string => OptionPos) posOfOption;\n    string[] public options;\n    bool biddingStarted;\n\n    function addOption(string memory option) public {\n        require(!biddingStarted, \"Bidding has already started\");\n        options.push(option);\n    }\n\n    function getOption(string memory option) public view returns (bool) {\n        for(uint i; i < options.length; i++) {\n            if(keccak256(abi.encodePacked(options[i])) == keccak256(abi.encodePacked(option))) {\n                return true;\n            }\n        }\n        return false;\n    } \n\n    function getOptionsCount() public view returns (uint) {\n        return options.length;\n    }\n\n    function startBidding() public {\n        require(!biddingStarted, \"Bidding has already started\");\n        bids.length = options.length;\n\n        for(uint i = 0; i < options.length; i++) {\n            OptionPos memory option = OptionPos(i, true);\n            posOfOption[options[i]] = option;\n        }\n        biddingStarted = true;\n    }\n\n    function bid(uint option) public {\n        require(0 <= option && option < options.length, \"Invalid option\");\n        require(!hasDoneBiding[msg.sender], \"Account has already done bidding\");\n\n        hasDoneBiding[msg.sender] = true;\n        bids[option] = bids[option] + 1;\n    }\n\n    function bid(string memory option) public {\n        require(!hasDoneBiding[msg.sender], \"Account has already done biding\");\n        OptionPos memory optionPos = posOfOption[option];\n        require(optionPos.exists, \"Option does not exist\");\n\n        hasDoneBiding[msg.sender] = true;\n        bids[optionPos.pos] = bids[optionPos.pos] + 1;\n    }\n\n    function getBids() public view returns (uint[] memory) {\n        return bids;\n    }\n}",
  "sourcePath": "/Users/zeeshanlatifjan/Work/bid-for-me/contracts/Bidder.sol",
  "compiler": {
    "name": "solc",
    "version": "0.5.16+commit.9c3226ce.Emscripten.clang"
  },
  "schemaVersion": "3.4.7",
  "updatedAt": "2022-05-09T08:18:26.760Z",
  "networkType": "ethereum",
  "devdoc": {
    "methods": {}
  },
  "userdoc": {
    "methods": {}
  }
}